{
  "contractName": "CredentialNFT",
  "abi": [
    {
      "inputs": [
        {
          "internalType": "address",
          "name": "initialOwner",
          "type": "address"
        }
      ],
      "stateMutability": "nonpayable",
      "type": "constructor"
    },
    {
      "inputs": [
        {
          "internalType": "address",
          "name": "sender",
          "type": "address"
        },
        {
          "internalType": "uint256",
          "name": "tokenId",
          "type": "uint256"
        },
        {
          "internalType": "address",
          "name": "owner",
          "type": "address"
        }
      ],
      "name": "ERC721IncorrectOwner",
      "type": "error"
    },
    {
      "inputs": [
        {
          "internalType": "address",
          "name": "operator",
          "type": "address"
        },
        {
          "internalType": "uint256",
          "name": "tokenId",
          "type": "uint256"
        }
      ],
      "name": "ERC721InsufficientApproval",
      "type": "error"
    },
    {
      "inputs": [
        {
          "internalType": "address",
          "name": "approver",
          "type": "address"
        }
      ],
      "name": "ERC721InvalidApprover",
      "type": "error"
    },
    {
      "inputs": [
        {
          "internalType": "address",
          "name": "operator",
          "type": "address"
        }
      ],
      "name": "ERC721InvalidOperator",
      "type": "error"
    },
    {
      "inputs": [
        {
          "internalType": "address",
          "name": "owner",
          "type": "address"
        }
      ],
      "name": "ERC721InvalidOwner",
      "type": "error"
    },
    {
      "inputs": [
        {
          "internalType": "address",
          "name": "receiver",
          "type": "address"
        }
      ],
      "name": "ERC721InvalidReceiver",
      "type": "error"
    },
    {
      "inputs": [
        {
          "internalType": "address",
          "name": "sender",
          "type": "address"
        }
      ],
      "name": "ERC721InvalidSender",
      "type": "error"
    },
    {
      "inputs": [
        {
          "internalType": "uint256",
          "name": "tokenId",
          "type": "uint256"
        }
      ],
      "name": "ERC721NonexistentToken",
      "type": "error"
    },
    {
      "inputs": [
        {
          "internalType": "address",
          "name": "owner",
          "type": "address"
        }
      ],
      "name": "OwnableInvalidOwner",
      "type": "error"
    },
    {
      "inputs": [
        {
          "internalType": "address",
          "name": "account",
          "type": "address"
        }
      ],
      "name": "OwnableUnauthorizedAccount",
      "type": "error"
    },
    {
      "anonymous": false,
      "inputs": [
        {
          "indexed": true,
          "internalType": "address",
          "name": "owner",
          "type": "address"
        },
        {
          "indexed": true,
          "internalType": "address",
          "name": "approved",
          "type": "address"
        },
        {
          "indexed": true,
          "internalType": "uint256",
          "name": "tokenId",
          "type": "uint256"
        }
      ],
      "name": "Approval",
      "type": "event"
    },
    {
      "anonymous": false,
      "inputs": [
        {
          "indexed": true,
          "internalType": "address",
          "name": "owner",
          "type": "address"
        },
        {
          "indexed": true,
          "internalType": "address",
          "name": "operator",
          "type": "address"
        },
        {
          "indexed": false,
          "internalType": "bool",
          "name": "approved",
          "type": "bool"
        }
      ],
      "name": "ApprovalForAll",
      "type": "event"
    },
    {
      "anonymous": false,
      "inputs": [
        {
          "indexed": false,
          "internalType": "uint256",
          "name": "_fromTokenId",
          "type": "uint256"
        },
        {
          "indexed": false,
          "internalType": "uint256",
          "name": "_toTokenId",
          "type": "uint256"
        }
      ],
      "name": "BatchMetadataUpdate",
      "type": "event"
    },
    {
      "anonymous": false,
      "inputs": [
        {
          "indexed": false,
          "internalType": "uint256",
          "name": "_tokenId",
          "type": "uint256"
        }
      ],
      "name": "MetadataUpdate",
      "type": "event"
    },
    {
      "anonymous": false,
      "inputs": [
        {
          "indexed": true,
          "internalType": "address",
          "name": "previousOwner",
          "type": "address"
        },
        {
          "indexed": true,
          "internalType": "address",
          "name": "newOwner",
          "type": "address"
        }
      ],
      "name": "OwnershipTransferred",
      "type": "event"
    },
    {
      "anonymous": false,
      "inputs": [
        {
          "indexed": true,
          "internalType": "address",
          "name": "from",
          "type": "address"
        },
        {
          "indexed": true,
          "internalType": "address",
          "name": "to",
          "type": "address"
        },
        {
          "indexed": true,
          "internalType": "uint256",
          "name": "tokenId",
          "type": "uint256"
        }
      ],
      "name": "Transfer",
      "type": "event"
    },
    {
      "inputs": [
        {
          "internalType": "address",
          "name": "to",
          "type": "address"
        },
        {
          "internalType": "uint256",
          "name": "tokenId",
          "type": "uint256"
        }
      ],
      "name": "approve",
      "outputs": [],
      "stateMutability": "nonpayable",
      "type": "function"
    },
    {
      "inputs": [
        {
          "internalType": "address",
          "name": "owner",
          "type": "address"
        }
      ],
      "name": "balanceOf",
      "outputs": [
        {
          "internalType": "uint256",
          "name": "",
          "type": "uint256"
        }
      ],
      "stateMutability": "view",
      "type": "function",
      "constant": true
    },
    {
      "inputs": [
        {
          "internalType": "uint256",
          "name": "tokenId",
          "type": "uint256"
        }
      ],
      "name": "getApproved",
      "outputs": [
        {
          "internalType": "address",
          "name": "",
          "type": "address"
        }
      ],
      "stateMutability": "view",
      "type": "function",
      "constant": true
    },
    {
      "inputs": [
        {
          "internalType": "address",
          "name": "owner",
          "type": "address"
        },
        {
          "internalType": "address",
          "name": "operator",
          "type": "address"
        }
      ],
      "name": "isApprovedForAll",
      "outputs": [
        {
          "internalType": "bool",
          "name": "",
          "type": "bool"
        }
      ],
      "stateMutability": "view",
      "type": "function",
      "constant": true
    },
    {
      "inputs": [],
      "name": "name",
      "outputs": [
        {
          "internalType": "string",
          "name": "",
          "type": "string"
        }
      ],
      "stateMutability": "view",
      "type": "function",
      "constant": true
    },
    {
      "inputs": [],
      "name": "nextTokenId",
      "outputs": [
        {
          "internalType": "uint256",
          "name": "",
          "type": "uint256"
        }
      ],
      "stateMutability": "view",
      "type": "function",
      "constant": true
    },
    {
      "inputs": [],
      "name": "owner",
      "outputs": [
        {
          "internalType": "address",
          "name": "",
          "type": "address"
        }
      ],
      "stateMutability": "view",
      "type": "function",
      "constant": true
    },
    {
      "inputs": [
        {
          "internalType": "uint256",
          "name": "tokenId",
          "type": "uint256"
        }
      ],
      "name": "ownerOf",
      "outputs": [
        {
          "internalType": "address",
          "name": "",
          "type": "address"
        }
      ],
      "stateMutability": "view",
      "type": "function",
      "constant": true
    },
    {
      "inputs": [],
      "name": "renounceOwnership",
      "outputs": [],
      "stateMutability": "nonpayable",
      "type": "function"
    },
    {
      "inputs": [
        {
          "internalType": "address",
          "name": "from",
          "type": "address"
        },
        {
          "internalType": "address",
          "name": "to",
          "type": "address"
        },
        {
          "internalType": "uint256",
          "name": "tokenId",
          "type": "uint256"
        }
      ],
      "name": "safeTransferFrom",
      "outputs": [],
      "stateMutability": "nonpayable",
      "type": "function"
    },
    {
      "inputs": [
        {
          "internalType": "address",
          "name": "from",
          "type": "address"
        },
        {
          "internalType": "address",
          "name": "to",
          "type": "address"
        },
        {
          "internalType": "uint256",
          "name": "tokenId",
          "type": "uint256"
        },
        {
          "internalType": "bytes",
          "name": "data",
          "type": "bytes"
        }
      ],
      "name": "safeTransferFrom",
      "outputs": [],
      "stateMutability": "nonpayable",
      "type": "function"
    },
    {
      "inputs": [
        {
          "internalType": "address",
          "name": "operator",
          "type": "address"
        },
        {
          "internalType": "bool",
          "name": "approved",
          "type": "bool"
        }
      ],
      "name": "setApprovalForAll",
      "outputs": [],
      "stateMutability": "nonpayable",
      "type": "function"
    },
    {
      "inputs": [
        {
          "internalType": "bytes4",
          "name": "interfaceId",
          "type": "bytes4"
        }
      ],
      "name": "supportsInterface",
      "outputs": [
        {
          "internalType": "bool",
          "name": "",
          "type": "bool"
        }
      ],
      "stateMutability": "view",
      "type": "function",
      "constant": true
    },
    {
      "inputs": [],
      "name": "symbol",
      "outputs": [
        {
          "internalType": "string",
          "name": "",
          "type": "string"
        }
      ],
      "stateMutability": "view",
      "type": "function",
      "constant": true
    },
    {
      "inputs": [
        {
          "internalType": "uint256",
          "name": "tokenId",
          "type": "uint256"
        }
      ],
      "name": "tokenURI",
      "outputs": [
        {
          "internalType": "string",
          "name": "",
          "type": "string"
        }
      ],
      "stateMutability": "view",
      "type": "function",
      "constant": true
    },
    {
      "inputs": [
        {
          "internalType": "address",
          "name": "from",
          "type": "address"
        },
        {
          "internalType": "address",
          "name": "to",
          "type": "address"
        },
        {
          "internalType": "uint256",
          "name": "tokenId",
          "type": "uint256"
        }
      ],
      "name": "transferFrom",
      "outputs": [],
      "stateMutability": "nonpayable",
      "type": "function"
    },
    {
      "inputs": [
        {
          "internalType": "address",
          "name": "newOwner",
          "type": "address"
        }
      ],
      "name": "transferOwnership",
      "outputs": [],
      "stateMutability": "nonpayable",
      "type": "function"
    },
    {
      "inputs": [
        {
          "internalType": "address",
          "name": "recipient",
          "type": "address"
        },
        {
          "internalType": "string",
          "name": "tokenURI",
          "type": "string"
        }
      ],
      "name": "mintCredential",
      "outputs": [],
      "stateMutability": "nonpayable",
      "type": "function"
    }
  ],
  "bytecode": "0x608060405234801562000010575f80fd5b5060405162002bb038038062002bb083398181016040528101906200003691906200027c565b806040518060400160405280601281526020017f41636164656d696343726564656e7469616c00000000000000000000000000008152506040518060400160405280600581526020017f4143524544000000000000000000000000000000000000000000000000000000815250815f9081620000b3919062000510565b508060019081620000c5919062000510565b5050505f73ffffffffffffffffffffffffffffffffffffffff168173ffffffffffffffffffffffffffffffffffffffff16036200013b575f6040517f1e4fbdf700000000000000000000000000000000000000000000000000000000815260040162000132919062000605565b60405180910390fd5b6200014c816200015460201b60201c565b505062000620565b5f60075f9054906101000a900473ffffffffffffffffffffffffffffffffffffffff1690508160075f6101000a81548173ffffffffffffffffffffffffffffffffffffffff021916908373ffffffffffffffffffffffffffffffffffffffff1602179055508173ffffffffffffffffffffffffffffffffffffffff168173ffffffffffffffffffffffffffffffffffffffff167f8be0079c531659141344cd1fd0a4f28419497f9722a3daafe3b4186f6b6457e060405160405180910390a35050565b5f80fd5b5f73ffffffffffffffffffffffffffffffffffffffff82169050919050565b5f62000246826200021b565b9050919050565b62000258816200023a565b811462000263575f80fd5b50565b5f8151905062000276816200024d565b92915050565b5f6020828403121562000294576200029362000217565b5b5f620002a38482850162000266565b91505092915050565b5f81519050919050565b7f4e487b71000000000000000000000000000000000000000000000000000000005f52604160045260245ffd5b7f4e487b71000000000000000000000000000000000000000000000000000000005f52602260045260245ffd5b5f60028204905060018216806200032857607f821691505b6020821081036200033e576200033d620002e3565b5b50919050565b5f819050815f5260205f209050919050565b5f6020601f8301049050919050565b5f82821b905092915050565b5f60088302620003a27fffffffffffffffffffffffffffffffffffffffffffffffffffffffffffffffff8262000365565b620003ae868362000365565b95508019841693508086168417925050509392505050565b5f819050919050565b5f819050919050565b5f620003f8620003f2620003ec84620003c6565b620003cf565b620003c6565b9050919050565b5f819050919050565b6200041383620003d8565b6200042b6200042282620003ff565b84845462000371565b825550505050565b5f90565b6200044162000433565b6200044e81848462000408565b505050565b5b818110156200047557620004695f8262000437565b60018101905062000454565b5050565b601f821115620004c4576200048e8162000344565b620004998462000356565b81016020851015620004a9578190505b620004c1620004b88562000356565b83018262000453565b50505b505050565b5f82821c905092915050565b5f620004e65f1984600802620004c9565b1980831691505092915050565b5f620005008383620004d5565b9150826002028217905092915050565b6200051b82620002ac565b67ffffffffffffffff811115620005375762000536620002b6565b5b62000543825462000310565b6200055082828562000479565b5f60209050601f83116001811462000586575f841562000571578287015190505b6200057d8582620004f3565b865550620005ec565b601f198416620005968662000344565b5f5b82811015620005bf5784890151825560018201915060208501945060208101905062000598565b86831015620005df5784890151620005db601f891682620004d5565b8355505b6001600288020188555050505b505050505050565b620005ff816200023a565b82525050565b5f6020820190506200061a5f830184620005f4565b92915050565b612582806200062e5f395ff3fe608060405234801561000f575f80fd5b5060043610610114575f3560e01c8063715018a6116100a0578063a22cb4651161006f578063a22cb465146102ca578063b88d4fde146102e6578063c87b56dd14610302578063e985e9c514610332578063f2fde38b1461036257610114565b8063715018a61461026657806375794a3c146102705780638da5cb5b1461028e57806395d89b41146102ac57610114565b8063095ea7b3116100e7578063095ea7b3146101b257806323b872dd146101ce57806342842e0e146101ea5780636352211e1461020657806370a082311461023657610114565b806301ffc9a71461011857806304f903301461014857806306fdde0314610164578063081812fc14610182575b5f80fd5b610132600480360381019061012d9190611a3b565b61037e565b60405161013f9190611a80565b60405180910390f35b610162600480360381019061015d9190611c2f565b6103de565b005b61016c61041c565b6040516101799190611d03565b60405180910390f35b61019c60048036038101906101979190611d56565b6104ab565b6040516101a99190611d90565b60405180910390f35b6101cc60048036038101906101c79190611da9565b6104c6565b005b6101e860048036038101906101e39190611de7565b6104dc565b005b61020460048036038101906101ff9190611de7565b6105db565b005b610220600480360381019061021b9190611d56565b6105fa565b60405161022d9190611d90565b60405180910390f35b610250600480360381019061024b9190611e37565b61060b565b60405161025d9190611e71565b60405180910390f35b61026e6106c1565b005b6102786106d4565b6040516102859190611e71565b60405180910390f35b6102966106da565b6040516102a39190611d90565b60405180910390f35b6102b4610702565b6040516102c19190611d03565b60405180910390f35b6102e460048036038101906102df9190611eb4565b610792565b005b61030060048036038101906102fb9190611f90565b6107a8565b005b61031c60048036038101906103179190611d56565b6107cd565b6040516103299190611d03565b60405180910390f35b61034c60048036038101906103479190612010565b6108d8565b6040516103599190611a80565b60405180910390f35b61037c60048036038101906103779190611e37565b610966565b005b5f634906490660e01b7bffffffffffffffffffffffffffffffffffffffffffffffffffffffff1916827bffffffffffffffffffffffffffffffffffffffffffffffffffffffff191614806103d757506103d6826109ea565b5b9050919050565b6103e6610acb565b5f60085490506103f68382610b52565b6104008183610c45565b60085f8154809291906104129061207b565b9190505550505050565b60605f805461042a906120ef565b80601f0160208091040260200160405190810160405280929190818152602001828054610456906120ef565b80156104a15780601f10610478576101008083540402835291602001916104a1565b820191905f5260205f20905b81548152906001019060200180831161048457829003601f168201915b5050505050905090565b5f6104b582610c9f565b506104bf82610d25565b9050919050565b6104d882826104d3610d5e565b610d65565b5050565b5f73ffffffffffffffffffffffffffffffffffffffff168273ffffffffffffffffffffffffffffffffffffffff160361054c575f6040517f64a0ae920000000000000000000000000000000000000000000000000000000081526004016105439190611d90565b60405180910390fd5b5f61055f838361055a610d5e565b610d77565b90508373ffffffffffffffffffffffffffffffffffffffff168173ffffffffffffffffffffffffffffffffffffffff16146105d5578382826040517f64283d7b0000000000000000000000000000000000000000000000000000000081526004016105cc9392919061211f565b60405180910390fd5b50505050565b6105f583838360405180602001604052805f8152506107a8565b505050565b5f61060482610c9f565b9050919050565b5f8073ffffffffffffffffffffffffffffffffffffffff168273ffffffffffffffffffffffffffffffffffffffff160361067c575f6040517f89c62b640000000000000000000000000000000000000000000000000000000081526004016106739190611d90565b60405180910390fd5b60035f8373ffffffffffffffffffffffffffffffffffffffff1673ffffffffffffffffffffffffffffffffffffffff1681526020019081526020015f20549050919050565b6106c9610acb565b6106d25f610f82565b565b60085481565b5f60075f9054906101000a900473ffffffffffffffffffffffffffffffffffffffff16905090565b606060018054610711906120ef565b80601f016020809104026020016040519081016040528092919081815260200182805461073d906120ef565b80156107885780601f1061075f57610100808354040283529160200191610788565b820191905f5260205f20905b81548152906001019060200180831161076b57829003601f168201915b5050505050905090565b6107a461079d610d5e565b8383611045565b5050565b6107b38484846104dc565b6107c76107be610d5e565b858585856111ae565b50505050565b60606107d882610c9f565b505f60065f8481526020019081526020015f2080546107f6906120ef565b80601f0160208091040260200160405190810160405280929190818152602001828054610822906120ef565b801561086d5780601f106108445761010080835404028352916020019161086d565b820191905f5260205f20905b81548152906001019060200180831161085057829003601f168201915b505050505090505f61087d61135a565b90505f8151036108915781925050506108d3565b5f825111156108c55780826040516020016108ad92919061218e565b604051602081830303815290604052925050506108d3565b6108ce84611370565b925050505b919050565b5f60055f8473ffffffffffffffffffffffffffffffffffffffff1673ffffffffffffffffffffffffffffffffffffffff1681526020019081526020015f205f8373ffffffffffffffffffffffffffffffffffffffff1673ffffffffffffffffffffffffffffffffffffffff1681526020019081526020015f205f9054906101000a900460ff16905092915050565b61096e610acb565b5f73ffffffffffffffffffffffffffffffffffffffff168173ffffffffffffffffffffffffffffffffffffffff16036109de575f6040517f1e4fbdf70000000000000000000000000000000000000000000000000000000081526004016109d59190611d90565b60405180910390fd5b6109e781610f82565b50565b5f7f80ac58cd000000000000000000000000000000000000000000000000000000007bffffffffffffffffffffffffffffffffffffffffffffffffffffffff1916827bffffffffffffffffffffffffffffffffffffffffffffffffffffffff19161480610ab457507f5b5e139f000000000000000000000000000000000000000000000000000000007bffffffffffffffffffffffffffffffffffffffffffffffffffffffff1916827bffffffffffffffffffffffffffffffffffffffffffffffffffffffff1916145b80610ac45750610ac3826113d6565b5b9050919050565b610ad3610d5e565b73ffffffffffffffffffffffffffffffffffffffff16610af16106da565b73ffffffffffffffffffffffffffffffffffffffff1614610b5057610b14610d5e565b6040517f118cdaa7000000000000000000000000000000000000000000000000000000008152600401610b479190611d90565b60405180910390fd5b565b5f73ffffffffffffffffffffffffffffffffffffffff168273ffffffffffffffffffffffffffffffffffffffff1603610bc2575f6040517f64a0ae92000000000000000000000000000000000000000000000000000000008152600401610bb99190611d90565b60405180910390fd5b5f610bce83835f610d77565b90505f73ffffffffffffffffffffffffffffffffffffffff168173ffffffffffffffffffffffffffffffffffffffff1614610c40575f6040517f73c6ac6e000000000000000000000000000000000000000000000000000000008152600401610c379190611d90565b60405180910390fd5b505050565b8060065f8481526020019081526020015f209081610c63919061234e565b507ff8e1a15aba9398e019f0b49df1a4fde98ee17ae345cb5f6b5e2c27f5033e8ce782604051610c939190611e71565b60405180910390a15050565b5f80610caa8361143f565b90505f73ffffffffffffffffffffffffffffffffffffffff168173ffffffffffffffffffffffffffffffffffffffff1603610d1c57826040517f7e273289000000000000000000000000000000000000000000000000000000008152600401610d139190611e71565b60405180910390fd5b80915050919050565b5f60045f8381526020019081526020015f205f9054906101000a900473ffffffffffffffffffffffffffffffffffffffff169050919050565b5f33905090565b610d728383836001611478565b505050565b5f80610d828461143f565b90505f73ffffffffffffffffffffffffffffffffffffffff168373ffffffffffffffffffffffffffffffffffffffff1614610dc357610dc2818486611637565b5b5f73ffffffffffffffffffffffffffffffffffffffff168173ffffffffffffffffffffffffffffffffffffffff1614610e4e57610e025f855f80611478565b600160035f8373ffffffffffffffffffffffffffffffffffffffff1673ffffffffffffffffffffffffffffffffffffffff1681526020019081526020015f205f82825403925050819055505b5f73ffffffffffffffffffffffffffffffffffffffff168573ffffffffffffffffffffffffffffffffffffffff1614610ecd57600160035f8773ffffffffffffffffffffffffffffffffffffffff1673ffffffffffffffffffffffffffffffffffffffff1681526020019081526020015f205f82825401925050819055505b8460025f8681526020019081526020015f205f6101000a81548173ffffffffffffffffffffffffffffffffffffffff021916908373ffffffffffffffffffffffffffffffffffffffff160217905550838573ffffffffffffffffffffffffffffffffffffffff168273ffffffffffffffffffffffffffffffffffffffff167fddf252ad1be2c89b69c2b068fc378daa952ba7f163c4a11628f55a4df523b3ef60405160405180910390a4809150509392505050565b5f60075f9054906101000a900473ffffffffffffffffffffffffffffffffffffffff1690508160075f6101000a81548173ffffffffffffffffffffffffffffffffffffffff021916908373ffffffffffffffffffffffffffffffffffffffff1602179055508173ffffffffffffffffffffffffffffffffffffffff168173ffffffffffffffffffffffffffffffffffffffff167f8be0079c531659141344cd1fd0a4f28419497f9722a3daafe3b4186f6b6457e060405160405180910390a35050565b5f73ffffffffffffffffffffffffffffffffffffffff168273ffffffffffffffffffffffffffffffffffffffff16036110b557816040517f5b08ba180000000000000000000000000000000000000000000000000000000081526004016110ac9190611d90565b60405180910390fd5b8060055f8573ffffffffffffffffffffffffffffffffffffffff1673ffffffffffffffffffffffffffffffffffffffff1681526020019081526020015f205f8473ffffffffffffffffffffffffffffffffffffffff1673ffffffffffffffffffffffffffffffffffffffff1681526020019081526020015f205f6101000a81548160ff0219169083151502179055508173ffffffffffffffffffffffffffffffffffffffff168373ffffffffffffffffffffffffffffffffffffffff167f17307eab39ab6107e8899845ad3d59bd9653f200f220920489ca2b5937696c31836040516111a19190611a80565b60405180910390a3505050565b5f8373ffffffffffffffffffffffffffffffffffffffff163b1115611353578273ffffffffffffffffffffffffffffffffffffffff1663150b7a02868685856040518563ffffffff1660e01b815260040161120c949392919061246f565b6020604051808303815f875af192505050801561124757506040513d601f19601f8201168201806040525081019061124491906124cd565b60015b6112c8573d805f8114611275576040519150601f19603f3d011682016040523d82523d5f602084013e61127a565b606091505b505f8151036112c057836040517f64a0ae920000000000000000000000000000000000000000000000000000000081526004016112b79190611d90565b60405180910390fd5b805160208201fd5b63150b7a0260e01b7bffffffffffffffffffffffffffffffffffffffffffffffffffffffff1916817bffffffffffffffffffffffffffffffffffffffffffffffffffffffff19161461135157836040517f64a0ae920000000000000000000000000000000000000000000000000000000081526004016113489190611d90565b60405180910390fd5b505b5050505050565b606060405180602001604052805f815250905090565b606061137b82610c9f565b505f61138561135a565b90505f8151116113a35760405180602001604052805f8152506113ce565b806113ad846116fa565b6040516020016113be92919061218e565b6040516020818303038152906040525b915050919050565b5f7f01ffc9a7000000000000000000000000000000000000000000000000000000007bffffffffffffffffffffffffffffffffffffffffffffffffffffffff1916827bffffffffffffffffffffffffffffffffffffffffffffffffffffffff1916149050919050565b5f60025f8381526020019081526020015f205f9054906101000a900473ffffffffffffffffffffffffffffffffffffffff169050919050565b80806114b057505f73ffffffffffffffffffffffffffffffffffffffff168273ffffffffffffffffffffffffffffffffffffffff1614155b156115e2575f6114bf84610c9f565b90505f73ffffffffffffffffffffffffffffffffffffffff168373ffffffffffffffffffffffffffffffffffffffff161415801561152957508273ffffffffffffffffffffffffffffffffffffffff168173ffffffffffffffffffffffffffffffffffffffff1614155b801561153c575061153a81846108d8565b155b1561157e57826040517fa9fbf51f0000000000000000000000000000000000000000000000000000000081526004016115759190611d90565b60405180910390fd5b81156115e057838573ffffffffffffffffffffffffffffffffffffffff168273ffffffffffffffffffffffffffffffffffffffff167f8c5be1e5ebec7d5bd14f71427d1e84f3dd0314c0f7b2291e5b200ac8c7c3b92560405160405180910390a45b505b8360045f8581526020019081526020015f205f6101000a81548173ffffffffffffffffffffffffffffffffffffffff021916908373ffffffffffffffffffffffffffffffffffffffff16021790555050505050565b6116428383836117c4565b6116f5575f73ffffffffffffffffffffffffffffffffffffffff168373ffffffffffffffffffffffffffffffffffffffff16036116b657806040517f7e2732890000000000000000000000000000000000000000000000000000000081526004016116ad9190611e71565b60405180910390fd5b81816040517f177e802f0000000000000000000000000000000000000000000000000000000081526004016116ec9291906124f8565b60405180910390fd5b505050565b60605f600161170884611884565b0190505f8167ffffffffffffffff81111561172657611725611b0b565b5b6040519080825280601f01601f1916602001820160405280156117585781602001600182028036833780820191505090505b5090505f82602083010190505b6001156117b9578080600190039150507f3031323334353637383961626364656600000000000000000000000000000000600a86061a8153600a85816117ae576117ad61251f565b5b0494505f8503611765575b819350505050919050565b5f8073ffffffffffffffffffffffffffffffffffffffff168373ffffffffffffffffffffffffffffffffffffffff161415801561187b57508273ffffffffffffffffffffffffffffffffffffffff168473ffffffffffffffffffffffffffffffffffffffff16148061183c575061183b84846108d8565b5b8061187a57508273ffffffffffffffffffffffffffffffffffffffff1661186283610d25565b73ffffffffffffffffffffffffffffffffffffffff16145b5b90509392505050565b5f805f90507a184f03e93ff9f4daa797ed6e38ed64bf6a1f01000000000000000083106118e0577a184f03e93ff9f4daa797ed6e38ed64bf6a1f01000000000000000083816118d6576118d561251f565b5b0492506040810190505b6d04ee2d6d415b85acef8100000000831061191d576d04ee2d6d415b85acef810000000083816119135761191261251f565b5b0492506020810190505b662386f26fc10000831061194c57662386f26fc1000083816119425761194161251f565b5b0492506010810190505b6305f5e1008310611975576305f5e100838161196b5761196a61251f565b5b0492506008810190505b612710831061199a5761271083816119905761198f61251f565b5b0492506004810190505b606483106119bd57606483816119b3576119b261251f565b5b0492506002810190505b600a83106119cc576001810190505b80915050919050565b5f604051905090565b5f80fd5b5f80fd5b5f7fffffffff0000000000000000000000000000000000000000000000000000000082169050919050565b611a1a816119e6565b8114611a24575f80fd5b50565b5f81359050611a3581611a11565b92915050565b5f60208284031215611a5057611a4f6119de565b5b5f611a5d84828501611a27565b91505092915050565b5f8115159050919050565b611a7a81611a66565b82525050565b5f602082019050611a935f830184611a71565b92915050565b5f73ffffffffffffffffffffffffffffffffffffffff82169050919050565b5f611ac282611a99565b9050919050565b611ad281611ab8565b8114611adc575f80fd5b50565b5f81359050611aed81611ac9565b92915050565b5f80fd5b5f80fd5b5f601f19601f8301169050919050565b7f4e487b71000000000000000000000000000000000000000000000000000000005f52604160045260245ffd5b611b4182611afb565b810181811067ffffffffffffffff82111715611b6057611b5f611b0b565b5b80604052505050565b5f611b726119d5565b9050611b7e8282611b38565b919050565b5f67ffffffffffffffff821115611b9d57611b9c611b0b565b5b611ba682611afb565b9050602081019050919050565b828183375f83830152505050565b5f611bd3611bce84611b83565b611b69565b905082815260208101848484011115611bef57611bee611af7565b5b611bfa848285611bb3565b509392505050565b5f82601f830112611c1657611c15611af3565b5b8135611c26848260208601611bc1565b91505092915050565b5f8060408385031215611c4557611c446119de565b5b5f611c5285828601611adf565b925050602083013567ffffffffffffffff811115611c7357611c726119e2565b5b611c7f85828601611c02565b9150509250929050565b5f81519050919050565b5f82825260208201905092915050565b5f5b83811015611cc0578082015181840152602081019050611ca5565b5f8484015250505050565b5f611cd582611c89565b611cdf8185611c93565b9350611cef818560208601611ca3565b611cf881611afb565b840191505092915050565b5f6020820190508181035f830152611d1b8184611ccb565b905092915050565b5f819050919050565b611d3581611d23565b8114611d3f575f80fd5b50565b5f81359050611d5081611d2c565b92915050565b5f60208284031215611d6b57611d6a6119de565b5b5f611d7884828501611d42565b91505092915050565b611d8a81611ab8565b82525050565b5f602082019050611da35f830184611d81565b92915050565b5f8060408385031215611dbf57611dbe6119de565b5b5f611dcc85828601611adf565b9250506020611ddd85828601611d42565b9150509250929050565b5f805f60608486031215611dfe57611dfd6119de565b5b5f611e0b86828701611adf565b9350506020611e1c86828701611adf565b9250506040611e2d86828701611d42565b9150509250925092565b5f60208284031215611e4c57611e4b6119de565b5b5f611e5984828501611adf565b91505092915050565b611e6b81611d23565b82525050565b5f602082019050611e845f830184611e62565b92915050565b611e9381611a66565b8114611e9d575f80fd5b50565b5f81359050611eae81611e8a565b92915050565b5f8060408385031215611eca57611ec96119de565b5b5f611ed785828601611adf565b9250506020611ee885828601611ea0565b9150509250929050565b5f67ffffffffffffffff821115611f0c57611f0b611b0b565b5b611f1582611afb565b9050602081019050919050565b5f611f34611f2f84611ef2565b611b69565b905082815260208101848484011115611f5057611f4f611af7565b5b611f5b848285611bb3565b509392505050565b5f82601f830112611f7757611f76611af3565b5b8135611f87848260208601611f22565b91505092915050565b5f805f8060808587031215611fa857611fa76119de565b5b5f611fb587828801611adf565b9450506020611fc687828801611adf565b9350506040611fd787828801611d42565b925050606085013567ffffffffffffffff811115611ff857611ff76119e2565b5b61200487828801611f63565b91505092959194509250565b5f8060408385031215612026576120256119de565b5b5f61203385828601611adf565b925050602061204485828601611adf565b9150509250929050565b7f4e487b71000000000000000000000000000000000000000000000000000000005f52601160045260245ffd5b5f61208582611d23565b91507fffffffffffffffffffffffffffffffffffffffffffffffffffffffffffffffff82036120b7576120b661204e565b5b600182019050919050565b7f4e487b71000000000000000000000000000000000000000000000000000000005f52602260045260245ffd5b5f600282049050600182168061210657607f821691505b602082108103612119576121186120c2565b5b50919050565b5f6060820190506121325f830186611d81565b61213f6020830185611e62565b61214c6040830184611d81565b949350505050565b5f81905092915050565b5f61216882611c89565b6121728185612154565b9350612182818560208601611ca3565b80840191505092915050565b5f612199828561215e565b91506121a5828461215e565b91508190509392505050565b5f819050815f5260205f209050919050565b5f6020601f8301049050919050565b5f82821b905092915050565b5f6008830261220d7fffffffffffffffffffffffffffffffffffffffffffffffffffffffffffffffff826121d2565b61221786836121d2565b95508019841693508086168417925050509392505050565b5f819050919050565b5f61225261224d61224884611d23565b61222f565b611d23565b9050919050565b5f819050919050565b61226b83612238565b61227f61227782612259565b8484546121de565b825550505050565b5f90565b612293612287565b61229e818484612262565b505050565b5b818110156122c1576122b65f8261228b565b6001810190506122a4565b5050565b601f821115612306576122d7816121b1565b6122e0846121c3565b810160208510156122ef578190505b6123036122fb856121c3565b8301826122a3565b50505b505050565b5f82821c905092915050565b5f6123265f198460080261230b565b1980831691505092915050565b5f61233e8383612317565b9150826002028217905092915050565b61235782611c89565b67ffffffffffffffff8111156123705761236f611b0b565b5b61237a82546120ef565b6123858282856122c5565b5f60209050601f8311600181146123b6575f84156123a4578287015190505b6123ae8582612333565b865550612415565b601f1984166123c4866121b1565b5f5b828110156123eb578489015182556001820191506020850194506020810190506123c6565b868310156124085784890151612404601f891682612317565b8355505b6001600288020188555050505b505050505050565b5f81519050919050565b5f82825260208201905092915050565b5f6124418261241d565b61244b8185612427565b935061245b818560208601611ca3565b61246481611afb565b840191505092915050565b5f6080820190506124825f830187611d81565b61248f6020830186611d81565b61249c6040830185611e62565b81810360608301526124ae8184612437565b905095945050505050565b5f815190506124c781611a11565b92915050565b5f602082840312156124e2576124e16119de565b5b5f6124ef848285016124b9565b91505092915050565b5f60408201905061250b5f830185611d81565b6125186020830184611e62565b9392505050565b7f4e487b71000000000000000000000000000000000000000000000000000000005f52601260045260245ffdfea2646970667358221220ab6a7d8ca2486f4efda7bf28f1e0cffa35409c577edfb2babe500b6a646f455164736f6c63430008140033",
  "immutableReferences": {},
  "source": "\r\n// SPDX-License-Identifier: MIT\r\npragma solidity ^0.8.20;\r\n\r\nimport \"@openzeppelin/contracts/token/ERC721/extensions/ERC721URIStorage.sol\";\r\nimport \"@openzeppelin/contracts/access/Ownable.sol\";\r\n\r\ncontract CredentialNFT is ERC721URIStorage, Ownable {\r\n    uint256 public nextTokenId;\r\n\r\n    constructor(address initialOwner) ERC721(\"AcademicCredential\", \"ACRED\") Ownable(initialOwner) {}\r\n\r\n    function mintCredential(address recipient, string memory tokenURI) public onlyOwner {\r\n        uint256 tokenId = nextTokenId;\r\n        _mint(recipient, tokenId);\r\n        _setTokenURI(tokenId, tokenURI);\r\n        nextTokenId++;\r\n    }\r\n}\r\n",
  "sourcePath": "C:\\Users\\tarun\\OneDrive\\Desktop\\NFT-Academic-Credential-Verifier\\contracts\\CredentialNFT.sol",
  "compiler": {
    "name": "solc",
    "version": "0.8.20+commit.a1b79de6.Emscripten.clang"
  },
  "schemaVersion": "3.4.16",
  "updatedAt": "2025-08-02T18:04:28.544Z",
  "networkType": "ethereum",
  "devdoc": {
    "errors": {
      "ERC721IncorrectOwner(address,uint256,address)": [
        {
          "details": "Indicates an error related to the ownership over a particular token. Used in transfers.",
          "params": {
            "owner": "Address of the current owner of a token.",
            "sender": "Address whose tokens are being transferred.",
            "tokenId": "Identifier number of a token."
          }
        }
      ],
      "ERC721InsufficientApproval(address,uint256)": [
        {
          "details": "Indicates a failure with the `operator`s approval. Used in transfers.",
          "params": {
            "operator": "Address that may be allowed to operate on tokens without being their owner.",
            "tokenId": "Identifier number of a token."
          }
        }
      ],
      "ERC721InvalidApprover(address)": [
        {
          "details": "Indicates a failure with the `approver` of a token to be approved. Used in approvals.",
          "params": {
            "approver": "Address initiating an approval operation."
          }
        }
      ],
      "ERC721InvalidOperator(address)": [
        {
          "details": "Indicates a failure with the `operator` to be approved. Used in approvals.",
          "params": {
            "operator": "Address that may be allowed to operate on tokens without being their owner."
          }
        }
      ],
      "ERC721InvalidOwner(address)": [
        {
          "details": "Indicates that an address can't be an owner. For example, `address(0)` is a forbidden owner in ERC-20. Used in balance queries.",
          "params": {
            "owner": "Address of the current owner of a token."
          }
        }
      ],
      "ERC721InvalidReceiver(address)": [
        {
          "details": "Indicates a failure with the token `receiver`. Used in transfers.",
          "params": {
            "receiver": "Address to which tokens are being transferred."
          }
        }
      ],
      "ERC721InvalidSender(address)": [
        {
          "details": "Indicates a failure with the token `sender`. Used in transfers.",
          "params": {
            "sender": "Address whose tokens are being transferred."
          }
        }
      ],
      "ERC721NonexistentToken(uint256)": [
        {
          "details": "Indicates a `tokenId` whose `owner` is the zero address.",
          "params": {
            "tokenId": "Identifier number of a token."
          }
        }
      ],
      "OwnableInvalidOwner(address)": [
        {
          "details": "The owner is not a valid owner account. (eg. `address(0)`)"
        }
      ],
      "OwnableUnauthorizedAccount(address)": [
        {
          "details": "The caller account is not authorized to perform an operation."
        }
      ]
    },
    "events": {
      "Approval(address,address,uint256)": {
        "details": "Emitted when `owner` enables `approved` to manage the `tokenId` token."
      },
      "ApprovalForAll(address,address,bool)": {
        "details": "Emitted when `owner` enables or disables (`approved`) `operator` to manage all of its assets."
      },
      "BatchMetadataUpdate(uint256,uint256)": {
        "details": "This event emits when the metadata of a range of tokens is changed. So that the third-party platforms such as NFT market could timely update the images and related attributes of the NFTs."
      },
      "MetadataUpdate(uint256)": {
        "details": "This event emits when the metadata of a token is changed. So that the third-party platforms such as NFT market could timely update the images and related attributes of the NFT."
      },
      "Transfer(address,address,uint256)": {
        "details": "Emitted when `tokenId` token is transferred from `from` to `to`."
      }
    },
    "kind": "dev",
    "methods": {
      "approve(address,uint256)": {
        "details": "Gives permission to `to` to transfer `tokenId` token to another account. The approval is cleared when the token is transferred. Only a single account can be approved at a time, so approving the zero address clears previous approvals. Requirements: - The caller must own the token or be an approved operator. - `tokenId` must exist. Emits an {Approval} event."
      },
      "balanceOf(address)": {
        "details": "Returns the number of tokens in ``owner``'s account."
      },
      "getApproved(uint256)": {
        "details": "Returns the account approved for `tokenId` token. Requirements: - `tokenId` must exist."
      },
      "isApprovedForAll(address,address)": {
        "details": "Returns if the `operator` is allowed to manage all of the assets of `owner`. See {setApprovalForAll}"
      },
      "name()": {
        "details": "Returns the token collection name."
      },
      "owner()": {
        "details": "Returns the address of the current owner."
      },
      "ownerOf(uint256)": {
        "details": "Returns the owner of the `tokenId` token. Requirements: - `tokenId` must exist."
      },
      "renounceOwnership()": {
        "details": "Leaves the contract without owner. It will not be possible to call `onlyOwner` functions. Can only be called by the current owner. NOTE: Renouncing ownership will leave the contract without an owner, thereby disabling any functionality that is only available to the owner."
      },
      "safeTransferFrom(address,address,uint256)": {
        "details": "Safely transfers `tokenId` token from `from` to `to`, checking first that contract recipients are aware of the ERC-721 protocol to prevent tokens from being forever locked. Requirements: - `from` cannot be the zero address. - `to` cannot be the zero address. - `tokenId` token must exist and be owned by `from`. - If the caller is not `from`, it must have been allowed to move this token by either {approve} or   {setApprovalForAll}. - If `to` refers to a smart contract, it must implement {IERC721Receiver-onERC721Received}, which is called upon   a safe transfer. Emits a {Transfer} event."
      },
      "safeTransferFrom(address,address,uint256,bytes)": {
        "details": "Safely transfers `tokenId` token from `from` to `to`. Requirements: - `from` cannot be the zero address. - `to` cannot be the zero address. - `tokenId` token must exist and be owned by `from`. - If the caller is not `from`, it must be approved to move this token by either {approve} or {setApprovalForAll}. - If `to` refers to a smart contract, it must implement {IERC721Receiver-onERC721Received}, which is called upon   a safe transfer. Emits a {Transfer} event."
      },
      "setApprovalForAll(address,bool)": {
        "details": "Approve or remove `operator` as an operator for the caller. Operators can call {transferFrom} or {safeTransferFrom} for any token owned by the caller. Requirements: - The `operator` cannot be the address zero. Emits an {ApprovalForAll} event."
      },
      "supportsInterface(bytes4)": {
        "details": "Returns true if this contract implements the interface defined by `interfaceId`. See the corresponding https://eips.ethereum.org/EIPS/eip-165#how-interfaces-are-identified[ERC section] to learn more about how these ids are created. This function call must use less than 30 000 gas."
      },
      "symbol()": {
        "details": "Returns the token collection symbol."
      },
      "tokenURI(uint256)": {
        "details": "Returns the Uniform Resource Identifier (URI) for `tokenId` token."
      },
      "transferFrom(address,address,uint256)": {
        "details": "Transfers `tokenId` token from `from` to `to`. WARNING: Note that the caller is responsible to confirm that the recipient is capable of receiving ERC-721 or else they may be permanently lost. Usage of {safeTransferFrom} prevents loss, though the caller must understand this adds an external call which potentially creates a reentrancy vulnerability. Requirements: - `from` cannot be the zero address. - `to` cannot be the zero address. - `tokenId` token must be owned by `from`. - If the caller is not `from`, it must be approved to move this token by either {approve} or {setApprovalForAll}. Emits a {Transfer} event."
      },
      "transferOwnership(address)": {
        "details": "Transfers ownership of the contract to a new account (`newOwner`). Can only be called by the current owner."
      }
    },
    "version": 1
  },
  "userdoc": {
    "kind": "user",
    "methods": {},
    "version": 1
  }
}