{
  "contractName": "CredentialNFT",
  "abi": [
    {
      "inputs": [
        {
          "internalType": "uint256",
          "name": "_threshold",
          "type": "uint256"
        }
      ],
      "stateMutability": "nonpayable",
      "type": "constructor"
    },
    {
      "anonymous": false,
      "inputs": [
        {
          "indexed": true,
          "internalType": "address",
          "name": "owner",
          "type": "address"
        },
        {
          "indexed": true,
          "internalType": "address",
          "name": "approved",
          "type": "address"
        },
        {
          "indexed": true,
          "internalType": "uint256",
          "name": "tokenId",
          "type": "uint256"
        }
      ],
      "name": "Approval",
      "type": "event"
    },
    {
      "anonymous": false,
      "inputs": [
        {
          "indexed": true,
          "internalType": "address",
          "name": "owner",
          "type": "address"
        },
        {
          "indexed": true,
          "internalType": "address",
          "name": "operator",
          "type": "address"
        },
        {
          "indexed": false,
          "internalType": "bool",
          "name": "approved",
          "type": "bool"
        }
      ],
      "name": "ApprovalForAll",
      "type": "event"
    },
    {
      "anonymous": false,
      "inputs": [
        {
          "indexed": false,
          "internalType": "uint256",
          "name": "_fromTokenId",
          "type": "uint256"
        },
        {
          "indexed": false,
          "internalType": "uint256",
          "name": "_toTokenId",
          "type": "uint256"
        }
      ],
      "name": "BatchMetadataUpdate",
      "type": "event"
    },
    {
      "anonymous": false,
      "inputs": [
        {
          "indexed": false,
          "internalType": "uint256",
          "name": "proposalId",
          "type": "uint256"
        },
        {
          "indexed": false,
          "internalType": "address",
          "name": "student",
          "type": "address"
        },
        {
          "indexed": false,
          "internalType": "uint256",
          "name": "tokenId",
          "type": "uint256"
        }
      ],
      "name": "CredentialMinted",
      "type": "event"
    },
    {
      "anonymous": false,
      "inputs": [
        {
          "indexed": false,
          "internalType": "uint256",
          "name": "proposalId",
          "type": "uint256"
        },
        {
          "indexed": false,
          "internalType": "address",
          "name": "proposer",
          "type": "address"
        },
        {
          "indexed": false,
          "internalType": "address",
          "name": "student",
          "type": "address"
        }
      ],
      "name": "CredentialProposed",
      "type": "event"
    },
    {
      "anonymous": false,
      "inputs": [
        {
          "indexed": false,
          "internalType": "uint256",
          "name": "proposalId",
          "type": "uint256"
        },
        {
          "indexed": false,
          "internalType": "address",
          "name": "voter",
          "type": "address"
        },
        {
          "indexed": false,
          "internalType": "bool",
          "name": "approved",
          "type": "bool"
        }
      ],
      "name": "CredentialVoted",
      "type": "event"
    },
    {
      "anonymous": false,
      "inputs": [
        {
          "indexed": false,
          "internalType": "uint256",
          "name": "_tokenId",
          "type": "uint256"
        }
      ],
      "name": "MetadataUpdate",
      "type": "event"
    },
    {
      "anonymous": false,
      "inputs": [
        {
          "indexed": true,
          "internalType": "address",
          "name": "previousOwner",
          "type": "address"
        },
        {
          "indexed": true,
          "internalType": "address",
          "name": "newOwner",
          "type": "address"
        }
      ],
      "name": "OwnershipTransferred",
      "type": "event"
    },
    {
      "anonymous": false,
      "inputs": [
        {
          "indexed": true,
          "internalType": "address",
          "name": "from",
          "type": "address"
        },
        {
          "indexed": true,
          "internalType": "address",
          "name": "to",
          "type": "address"
        },
        {
          "indexed": true,
          "internalType": "uint256",
          "name": "tokenId",
          "type": "uint256"
        }
      ],
      "name": "Transfer",
      "type": "event"
    },
    {
      "anonymous": false,
      "inputs": [
        {
          "indexed": false,
          "internalType": "address",
          "name": "uni",
          "type": "address"
        }
      ],
      "name": "UniversityAdded",
      "type": "event"
    },
    {
      "inputs": [],
      "name": "approvalThreshold",
      "outputs": [
        {
          "internalType": "uint256",
          "name": "",
          "type": "uint256"
        }
      ],
      "stateMutability": "view",
      "type": "function",
      "constant": true
    },
    {
      "inputs": [
        {
          "internalType": "address",
          "name": "to",
          "type": "address"
        },
        {
          "internalType": "uint256",
          "name": "tokenId",
          "type": "uint256"
        }
      ],
      "name": "approve",
      "outputs": [],
      "stateMutability": "nonpayable",
      "type": "function"
    },
    {
      "inputs": [
        {
          "internalType": "address",
          "name": "owner",
          "type": "address"
        }
      ],
      "name": "balanceOf",
      "outputs": [
        {
          "internalType": "uint256",
          "name": "",
          "type": "uint256"
        }
      ],
      "stateMutability": "view",
      "type": "function",
      "constant": true
    },
    {
      "inputs": [
        {
          "internalType": "uint256",
          "name": "tokenId",
          "type": "uint256"
        }
      ],
      "name": "getApproved",
      "outputs": [
        {
          "internalType": "address",
          "name": "",
          "type": "address"
        }
      ],
      "stateMutability": "view",
      "type": "function",
      "constant": true
    },
    {
      "inputs": [
        {
          "internalType": "uint256",
          "name": "",
          "type": "uint256"
        },
        {
          "internalType": "address",
          "name": "",
          "type": "address"
        }
      ],
      "name": "hasVoted",
      "outputs": [
        {
          "internalType": "bool",
          "name": "",
          "type": "bool"
        }
      ],
      "stateMutability": "view",
      "type": "function",
      "constant": true
    },
    {
      "inputs": [
        {
          "internalType": "address",
          "name": "owner",
          "type": "address"
        },
        {
          "internalType": "address",
          "name": "operator",
          "type": "address"
        }
      ],
      "name": "isApprovedForAll",
      "outputs": [
        {
          "internalType": "bool",
          "name": "",
          "type": "bool"
        }
      ],
      "stateMutability": "view",
      "type": "function",
      "constant": true
    },
    {
      "inputs": [
        {
          "internalType": "address",
          "name": "",
          "type": "address"
        }
      ],
      "name": "isUniversity",
      "outputs": [
        {
          "internalType": "bool",
          "name": "",
          "type": "bool"
        }
      ],
      "stateMutability": "view",
      "type": "function",
      "constant": true
    },
    {
      "inputs": [],
      "name": "name",
      "outputs": [
        {
          "internalType": "string",
          "name": "",
          "type": "string"
        }
      ],
      "stateMutability": "view",
      "type": "function",
      "constant": true
    },
    {
      "inputs": [],
      "name": "owner",
      "outputs": [
        {
          "internalType": "address",
          "name": "",
          "type": "address"
        }
      ],
      "stateMutability": "view",
      "type": "function",
      "constant": true
    },
    {
      "inputs": [
        {
          "internalType": "uint256",
          "name": "tokenId",
          "type": "uint256"
        }
      ],
      "name": "ownerOf",
      "outputs": [
        {
          "internalType": "address",
          "name": "",
          "type": "address"
        }
      ],
      "stateMutability": "view",
      "type": "function",
      "constant": true
    },
    {
      "inputs": [],
      "name": "proposalCount",
      "outputs": [
        {
          "internalType": "uint256",
          "name": "",
          "type": "uint256"
        }
      ],
      "stateMutability": "view",
      "type": "function",
      "constant": true
    },
    {
      "inputs": [],
      "name": "renounceOwnership",
      "outputs": [],
      "stateMutability": "nonpayable",
      "type": "function"
    },
    {
      "inputs": [
        {
          "internalType": "address",
          "name": "from",
          "type": "address"
        },
        {
          "internalType": "address",
          "name": "to",
          "type": "address"
        },
        {
          "internalType": "uint256",
          "name": "tokenId",
          "type": "uint256"
        }
      ],
      "name": "safeTransferFrom",
      "outputs": [],
      "stateMutability": "nonpayable",
      "type": "function"
    },
    {
      "inputs": [
        {
          "internalType": "address",
          "name": "from",
          "type": "address"
        },
        {
          "internalType": "address",
          "name": "to",
          "type": "address"
        },
        {
          "internalType": "uint256",
          "name": "tokenId",
          "type": "uint256"
        },
        {
          "internalType": "bytes",
          "name": "data",
          "type": "bytes"
        }
      ],
      "name": "safeTransferFrom",
      "outputs": [],
      "stateMutability": "nonpayable",
      "type": "function"
    },
    {
      "inputs": [
        {
          "internalType": "address",
          "name": "operator",
          "type": "address"
        },
        {
          "internalType": "bool",
          "name": "approved",
          "type": "bool"
        }
      ],
      "name": "setApprovalForAll",
      "outputs": [],
      "stateMutability": "nonpayable",
      "type": "function"
    },
    {
      "inputs": [
        {
          "internalType": "bytes4",
          "name": "interfaceId",
          "type": "bytes4"
        }
      ],
      "name": "supportsInterface",
      "outputs": [
        {
          "internalType": "bool",
          "name": "",
          "type": "bool"
        }
      ],
      "stateMutability": "view",
      "type": "function",
      "constant": true
    },
    {
      "inputs": [],
      "name": "symbol",
      "outputs": [
        {
          "internalType": "string",
          "name": "",
          "type": "string"
        }
      ],
      "stateMutability": "view",
      "type": "function",
      "constant": true
    },
    {
      "inputs": [],
      "name": "tokenIdCounter",
      "outputs": [
        {
          "internalType": "uint256",
          "name": "",
          "type": "uint256"
        }
      ],
      "stateMutability": "view",
      "type": "function",
      "constant": true
    },
    {
      "inputs": [
        {
          "internalType": "uint256",
          "name": "tokenId",
          "type": "uint256"
        }
      ],
      "name": "tokenURI",
      "outputs": [
        {
          "internalType": "string",
          "name": "",
          "type": "string"
        }
      ],
      "stateMutability": "view",
      "type": "function",
      "constant": true
    },
    {
      "inputs": [
        {
          "internalType": "address",
          "name": "from",
          "type": "address"
        },
        {
          "internalType": "address",
          "name": "to",
          "type": "address"
        },
        {
          "internalType": "uint256",
          "name": "tokenId",
          "type": "uint256"
        }
      ],
      "name": "transferFrom",
      "outputs": [],
      "stateMutability": "nonpayable",
      "type": "function"
    },
    {
      "inputs": [
        {
          "internalType": "address",
          "name": "newOwner",
          "type": "address"
        }
      ],
      "name": "transferOwnership",
      "outputs": [],
      "stateMutability": "nonpayable",
      "type": "function"
    },
    {
      "inputs": [
        {
          "internalType": "address",
          "name": "uni",
          "type": "address"
        }
      ],
      "name": "addUniversity",
      "outputs": [],
      "stateMutability": "nonpayable",
      "type": "function"
    },
    {
      "inputs": [
        {
          "internalType": "address",
          "name": "student",
          "type": "address"
        },
        {
          "internalType": "string",
          "name": "metadataURI",
          "type": "string"
        }
      ],
      "name": "proposeCredential",
      "outputs": [],
      "stateMutability": "nonpayable",
      "type": "function"
    },
    {
      "inputs": [
        {
          "internalType": "uint256",
          "name": "proposalId",
          "type": "uint256"
        },
        {
          "internalType": "bool",
          "name": "approve",
          "type": "bool"
        }
      ],
      "name": "voteOnCredential",
      "outputs": [],
      "stateMutability": "nonpayable",
      "type": "function"
    },
    {
      "inputs": [
        {
          "internalType": "uint256",
          "name": "proposalId",
          "type": "uint256"
        }
      ],
      "name": "mintCredential",
      "outputs": [],
      "stateMutability": "nonpayable",
      "type": "function"
    },
    {
      "inputs": [
        {
          "internalType": "uint256",
          "name": "proposalId",
          "type": "uint256"
        }
      ],
      "name": "getProposalInfo",
      "outputs": [
        {
          "internalType": "uint256",
          "name": "id",
          "type": "uint256"
        },
        {
          "internalType": "address",
          "name": "proposer",
          "type": "address"
        },
        {
          "internalType": "address",
          "name": "student",
          "type": "address"
        },
        {
          "internalType": "string",
          "name": "metadataURI",
          "type": "string"
        },
        {
          "internalType": "uint256",
          "name": "approvals",
          "type": "uint256"
        },
        {
          "internalType": "uint256",
          "name": "rejections",
          "type": "uint256"
        },
        {
          "internalType": "bool",
          "name": "minted",
          "type": "bool"
        }
      ],
      "stateMutability": "view",
      "type": "function",
      "constant": true
    }
  ],
  "bytecode": "0x6080604052600060085560016009553480156200001b57600080fd5b506040516200235c3803806200235c8339810160408190526200003e9162000172565b6040518060400160405280600d81526020016c10dc9959195b9d1a585b139195609a1b8152506040518060400160405280600481526020016310d4915160e21b815250816000908162000092919062000231565b506001620000a1828262000231565b505050620000be620000b86200011c60201b60201c565b62000120565b60008111620001135760405162461bcd60e51b815260206004820152601560248201527f5468726573686f6c64206d757374206265203e20300000000000000000000000604482015260640160405180910390fd5b600a55620002fd565b3390565b600780546001600160a01b038381166001600160a01b0319831681179093556040519116919082907f8be0079c531659141344cd1fd0a4f28419497f9722a3daafe3b4186f6b6457e090600090a35050565b6000602082840312156200018557600080fd5b5051919050565b634e487b7160e01b600052604160045260246000fd5b600181811c90821680620001b757607f821691505b602082108103620001d857634e487b7160e01b600052602260045260246000fd5b50919050565b601f8211156200022c57600081815260208120601f850160051c81016020861015620002075750805b601f850160051c820191505b81811015620002285782815560010162000213565b5050505b505050565b81516001600160401b038111156200024d576200024d6200018c565b62000265816200025e8454620001a2565b84620001de565b602080601f8311600181146200029d5760008415620002845750858301515b600019600386901b1c1916600185901b17855562000228565b600085815260208120601f198616915b82811015620002ce57888601518255948401946001909101908401620002ad565b5085821015620002ed5787850151600019600388901b60f8161c191681555b5050505050600190811b01905550565b61204f806200030d6000396000f3fe608060405234801561001057600080fd5b506004361061018e5760003560e01c80637d0eef61116100de578063b9730cde11610097578063da35c66411610071578063da35c66414610386578063df81e9b01461038f578063e985e9c5146103a2578063f2fde38b146103de57600080fd5b8063b9730cde1461032a578063bc903cb81461034d578063c87b56dd1461037357600080fd5b80637d0eef61146102d95780638da5cb5b146102e257806395d89b41146102f357806398bdf6f5146102fb578063a22cb46514610304578063b88d4fde1461031757600080fd5b80633f7c72711161014b578063559eefa611610125578063559eefa61461028a5780636352211e1461029d57806370a08231146102b0578063715018a6146102d157600080fd5b80633f7c72711461023657806342842e0e14610249578063438596321461025c57600080fd5b806301ffc9a71461019357806306fdde03146101bb578063081812fc146101d0578063095ea7b3146101fb57806323b872dd1461021057806339bdf2a114610223575b600080fd5b6101a66101a1366004611997565b6103f1565b60405190151581526020015b60405180910390f35b6101c361041c565b6040516101b29190611a04565b6101e36101de366004611a17565b6104ae565b6040516001600160a01b0390911681526020016101b2565b61020e610209366004611a4c565b6104d5565b005b61020e61021e366004611a76565b6105ef565b61020e610231366004611ab2565b610620565b61020e610244366004611a17565b6106db565b61020e610257366004611a76565b6108f3565b6101a661026a366004611acd565b600c60209081526000928352604080842090915290825290205460ff1681565b61020e610298366004611b85565b61090e565b6101e36102ab366004611a17565b610a1a565b6102c36102be366004611ab2565b610a7a565b6040519081526020016101b2565b61020e610b00565b6102c3600a5481565b6007546001600160a01b03166101e3565b6101c3610b14565b6102c360095481565b61020e610312366004611bf7565b610b23565b61020e610325366004611c21565b610b32565b6101a6610338366004611ab2565b600d6020526000908152604090205460ff1681565b61036061035b366004611a17565b610b6a565b6040516101b29796959493929190611c9d565b6101c3610381366004611a17565b610c6a565b6102c360085481565b61020e61039d366004611cf0565b610d7a565b6101a66103b0366004611d13565b6001600160a01b03918216600090815260056020908152604080832093909416825291909152205460ff1690565b61020e6103ec366004611ab2565b610f26565b60006001600160e01b03198216632483248360e11b1480610416575061041682610f9f565b92915050565b60606000805461042b90611d3d565b80601f016020809104026020016040519081016040528092919081815260200182805461045790611d3d565b80156104a45780601f10610479576101008083540402835291602001916104a4565b820191906000526020600020905b81548152906001019060200180831161048757829003601f168201915b5050505050905090565b60006104b982610fef565b506000908152600460205260409020546001600160a01b031690565b60006104e082610a1a565b9050806001600160a01b0316836001600160a01b0316036105525760405162461bcd60e51b815260206004820152602160248201527f4552433732313a20617070726f76616c20746f2063757272656e74206f776e656044820152603960f91b60648201526084015b60405180910390fd5b336001600160a01b038216148061056e575061056e81336103b0565b6105e05760405162461bcd60e51b815260206004820152603d60248201527f4552433732313a20617070726f76652063616c6c6572206973206e6f7420746f60448201527f6b656e206f776e6572206f7220617070726f76656420666f7220616c6c0000006064820152608401610549565b6105ea838361104e565b505050565b6105f933826110bc565b6106155760405162461bcd60e51b815260040161054990611d77565b6105ea83838361113a565b61062861129e565b6001600160a01b0381166000908152600d602052604090205460ff16156106815760405162461bcd60e51b815260206004820152600d60248201526c105b1c9958591e481859191959609a1b6044820152606401610549565b6001600160a01b0381166000818152600d6020908152604091829020805460ff1916600117905590519182527f1bd776fe56dabdcdce7a058540a81f2015efbfd2b70a9a062754353200dc171f910160405180910390a150565b6000818152600b60205260409020600681015460ff161561072f5760405162461bcd60e51b815260206004820152600e60248201526d105b1c9958591e481b5a5b9d195960921b6044820152606401610549565b600a548160040154101561077c5760405162461bcd60e51b81526020600482015260146024820152734e6f7420656e6f75676820617070726f76616c7360601b6044820152606401610549565b80600501548160040154116107ca5760405162461bcd60e51b815260206004820152601460248201527352656a6563746564206279206d616a6f7269747960601b6044820152606401610549565b60095460028201546107e5906001600160a01b0316826112f8565b61087b818360030180546107f890611d3d565b80601f016020809104026020016040519081016040528092919081815260200182805461082490611d3d565b80156108715780601f1061084657610100808354040283529160200191610871565b820191906000526020600020905b81548152906001019060200180831161085457829003601f168201915b5050505050611483565b6009805490600061088b83611dc4565b909155505060068201805460ff191660011790556002820154604080518581526001600160a01b03909216602083015281018290527f5a117402efe00149e11efa42fc74655087898676b665466ceea9597f2d7010d0906060015b60405180910390a1505050565b6105ea83838360405180602001604052806000815250610b32565b336000908152600d602052604090205460ff1661096d5760405162461bcd60e51b815260206004820152601b60248201527f4f6e6c7920756e69766572736974792063616e2070726f706f736500000000006044820152606401610549565b6008805490600061097d83611dc4565b90915550506008546000818152600b60205260409020908155600181018054336001600160a01b0319918216179091556002820180549091166001600160a01b038516179055600381016109d18382611e39565b50600854604080519182523360208301526001600160a01b038516908201527faafa605c5aea41df48a146d3cf0b7464e606ecbbdb6683e16c3505c0fe229714906060016108e6565b6000818152600260205260408120546001600160a01b0316806104165760405162461bcd60e51b8152602060048201526018602482015277115490cdcc8c4e881a5b9d985b1a59081d1bdad95b88125160421b6044820152606401610549565b60006001600160a01b038216610ae45760405162461bcd60e51b815260206004820152602960248201527f4552433732313a2061646472657373207a65726f206973206e6f7420612076616044820152683634b21037bbb732b960b91b6064820152608401610549565b506001600160a01b031660009081526003602052604090205490565b610b0861129e565b610b12600061154e565b565b60606001805461042b90611d3d565b610b2e3383836115a0565b5050565b610b3c33836110bc565b610b585760405162461bcd60e51b815260040161054990611d77565b610b648484848461166e565b50505050565b6000818152600b60205260408120805460018201546002830154600484015460058501546006860154600387018054899889986060988a9889988998949793966001600160a01b039384169693909216949193909260ff909116908490610bd090611d3d565b80601f0160208091040260200160405190810160405280929190818152602001828054610bfc90611d3d565b8015610c495780601f10610c1e57610100808354040283529160200191610c49565b820191906000526020600020905b815481529060010190602001808311610c2c57829003601f168201915b50505050509350975097509750975097509750975050919395979092949650565b6060610c7582610fef565b60008281526006602052604081208054610c8e90611d3d565b80601f0160208091040260200160405190810160405280929190818152602001828054610cba90611d3d565b8015610d075780601f10610cdc57610100808354040283529160200191610d07565b820191906000526020600020905b815481529060010190602001808311610cea57829003601f168201915b505050505090506000610d2560408051602081019091526000815290565b90508051600003610d37575092915050565b815115610d69578082604051602001610d51929190611ef9565b60405160208183030381529060405292505050919050565b610d72846116a1565b949350505050565b336000908152600d602052604090205460ff16610dd95760405162461bcd60e51b815260206004820152601860248201527f4f6e6c7920756e69766572736974792063616e20766f746500000000000000006044820152606401610549565b6000828152600b60205260409020600681015460ff1615610e2d5760405162461bcd60e51b815260206004820152600e60248201526d105b1c9958591e481b5a5b9d195960921b6044820152606401610549565b6000838152600c6020908152604080832033845290915290205460ff1615610e875760405162461bcd60e51b815260206004820152600d60248201526c105b1c9958591e481d9bdd1959609a1b6044820152606401610549565b6000838152600c602090815260408083203384529091529020805460ff191660011790558115610ecd57600481018054906000610ec383611dc4565b9190505550610ee5565b600581018054906000610edf83611dc4565b91905055505b60408051848152336020820152831515918101919091527f2e49db8cb1d4b73601d41a3704f83c369322f5a73e2ce9134cf5e53b4ed99abe906060016108e6565b610f2e61129e565b6001600160a01b038116610f935760405162461bcd60e51b815260206004820152602660248201527f4f776e61626c653a206e6577206f776e657220697320746865207a65726f206160448201526564647265737360d01b6064820152608401610549565b610f9c8161154e565b50565b60006001600160e01b031982166380ac58cd60e01b1480610fd057506001600160e01b03198216635b5e139f60e01b145b8061041657506301ffc9a760e01b6001600160e01b0319831614610416565b6000818152600260205260409020546001600160a01b0316610f9c5760405162461bcd60e51b8152602060048201526018602482015277115490cdcc8c4e881a5b9d985b1a59081d1bdad95b88125160421b6044820152606401610549565b600081815260046020526040902080546001600160a01b0319166001600160a01b038416908117909155819061108382610a1a565b6001600160a01b03167f8c5be1e5ebec7d5bd14f71427d1e84f3dd0314c0f7b2291e5b200ac8c7c3b92560405160405180910390a45050565b6000806110c883610a1a565b9050806001600160a01b0316846001600160a01b0316148061110f57506001600160a01b0380821660009081526005602090815260408083209388168352929052205460ff165b80610d725750836001600160a01b0316611128846104ae565b6001600160a01b031614949350505050565b826001600160a01b031661114d82610a1a565b6001600160a01b0316146111735760405162461bcd60e51b815260040161054990611f28565b6001600160a01b0382166111d55760405162461bcd60e51b8152602060048201526024808201527f4552433732313a207472616e7366657220746f20746865207a65726f206164646044820152637265737360e01b6064820152608401610549565b826001600160a01b03166111e882610a1a565b6001600160a01b03161461120e5760405162461bcd60e51b815260040161054990611f28565b600081815260046020908152604080832080546001600160a01b03199081169091556001600160a01b0387811680865260038552838620805460001901905590871680865283862080546001019055868652600290945282852080549092168417909155905184937fddf252ad1be2c89b69c2b068fc378daa952ba7f163c4a11628f55a4df523b3ef91a4505050565b6007546001600160a01b03163314610b125760405162461bcd60e51b815260206004820181905260248201527f4f776e61626c653a2063616c6c6572206973206e6f7420746865206f776e65726044820152606401610549565b6001600160a01b03821661134e5760405162461bcd60e51b815260206004820181905260248201527f4552433732313a206d696e7420746f20746865207a65726f20616464726573736044820152606401610549565b6000818152600260205260409020546001600160a01b0316156113b35760405162461bcd60e51b815260206004820152601c60248201527f4552433732313a20746f6b656e20616c7265616479206d696e746564000000006044820152606401610549565b6000818152600260205260409020546001600160a01b0316156114185760405162461bcd60e51b815260206004820152601c60248201527f4552433732313a20746f6b656e20616c7265616479206d696e746564000000006044820152606401610549565b6001600160a01b038216600081815260036020908152604080832080546001019055848352600290915280822080546001600160a01b0319168417905551839291907fddf252ad1be2c89b69c2b068fc378daa952ba7f163c4a11628f55a4df523b3ef908290a45050565b6000828152600260205260409020546001600160a01b03166114fe5760405162461bcd60e51b815260206004820152602e60248201527f45524337323155524953746f726167653a2055524920736574206f66206e6f6e60448201526d32bc34b9ba32b73a103a37b5b2b760911b6064820152608401610549565b60008281526006602052604090206115168282611e39565b506040518281527ff8e1a15aba9398e019f0b49df1a4fde98ee17ae345cb5f6b5e2c27f5033e8ce79060200160405180910390a15050565b600780546001600160a01b038381166001600160a01b0319831681179093556040519116919082907f8be0079c531659141344cd1fd0a4f28419497f9722a3daafe3b4186f6b6457e090600090a35050565b816001600160a01b0316836001600160a01b0316036116015760405162461bcd60e51b815260206004820152601960248201527f4552433732313a20617070726f766520746f2063616c6c6572000000000000006044820152606401610549565b6001600160a01b03838116600081815260056020908152604080832094871680845294825291829020805460ff191686151590811790915591519182527f17307eab39ab6107e8899845ad3d59bd9653f200f220920489ca2b5937696c31910160405180910390a3505050565b61167984848461113a565b61168584848484611715565b610b645760405162461bcd60e51b815260040161054990611f6d565b60606116ac82610fef565b60006116c360408051602081019091526000815290565b905060008151116116e3576040518060200160405280600081525061170e565b806116ed84611816565b6040516020016116fe929190611ef9565b6040516020818303038152906040525b9392505050565b60006001600160a01b0384163b1561180b57604051630a85bd0160e11b81526001600160a01b0385169063150b7a0290611759903390899088908890600401611fbf565b6020604051808303816000875af1925050508015611794575060408051601f3d908101601f1916820190925261179191810190611ffc565b60015b6117f1573d8080156117c2576040519150601f19603f3d011682016040523d82523d6000602084013e6117c7565b606091505b5080516000036117e95760405162461bcd60e51b815260040161054990611f6d565b805181602001fd5b6001600160e01b031916630a85bd0160e11b149050610d72565b506001949350505050565b60606000611823836118a9565b600101905060008167ffffffffffffffff81111561184357611843611af9565b6040519080825280601f01601f19166020018201604052801561186d576020820181803683370190505b5090508181016020015b600019016f181899199a1a9b1b9c1cb0b131b232b360811b600a86061a8153600a850494508461187757509392505050565b60008072184f03e93ff9f4daa797ed6e38ed64bf6a1f0160401b83106118e85772184f03e93ff9f4daa797ed6e38ed64bf6a1f0160401b830492506040015b6d04ee2d6d415b85acef81000000008310611914576d04ee2d6d415b85acef8100000000830492506020015b662386f26fc10000831061193257662386f26fc10000830492506010015b6305f5e100831061194a576305f5e100830492506008015b612710831061195e57612710830492506004015b60648310611970576064830492506002015b600a83106104165760010192915050565b6001600160e01b031981168114610f9c57600080fd5b6000602082840312156119a957600080fd5b813561170e81611981565b60005b838110156119cf5781810151838201526020016119b7565b50506000910152565b600081518084526119f08160208601602086016119b4565b601f01601f19169290920160200192915050565b60208152600061170e60208301846119d8565b600060208284031215611a2957600080fd5b5035919050565b80356001600160a01b0381168114611a4757600080fd5b919050565b60008060408385031215611a5f57600080fd5b611a6883611a30565b946020939093013593505050565b600080600060608486031215611a8b57600080fd5b611a9484611a30565b9250611aa260208501611a30565b9150604084013590509250925092565b600060208284031215611ac457600080fd5b61170e82611a30565b60008060408385031215611ae057600080fd5b82359150611af060208401611a30565b90509250929050565b634e487b7160e01b600052604160045260246000fd5b600067ffffffffffffffff80841115611b2a57611b2a611af9565b604051601f8501601f19908116603f01168101908282118183101715611b5257611b52611af9565b81604052809350858152868686011115611b6b57600080fd5b858560208301376000602087830101525050509392505050565b60008060408385031215611b9857600080fd5b611ba183611a30565b9150602083013567ffffffffffffffff811115611bbd57600080fd5b8301601f81018513611bce57600080fd5b611bdd85823560208401611b0f565b9150509250929050565b80358015158114611a4757600080fd5b60008060408385031215611c0a57600080fd5b611c1383611a30565b9150611af060208401611be7565b60008060008060808587031215611c3757600080fd5b611c4085611a30565b9350611c4e60208601611a30565b925060408501359150606085013567ffffffffffffffff811115611c7157600080fd5b8501601f81018713611c8257600080fd5b611c9187823560208401611b0f565b91505092959194509250565b8781526001600160a01b0387811660208301528616604082015260e060608201819052600090611ccf908301876119d8565b60808301959095525060a0810192909252151560c090910152949350505050565b60008060408385031215611d0357600080fd5b82359150611af060208401611be7565b60008060408385031215611d2657600080fd5b611d2f83611a30565b9150611af060208401611a30565b600181811c90821680611d5157607f821691505b602082108103611d7157634e487b7160e01b600052602260045260246000fd5b50919050565b6020808252602d908201527f4552433732313a2063616c6c6572206973206e6f7420746f6b656e206f776e6560408201526c1c881bdc88185c1c1c9bdd9959609a1b606082015260800190565b600060018201611de457634e487b7160e01b600052601160045260246000fd5b5060010190565b601f8211156105ea57600081815260208120601f850160051c81016020861015611e125750805b601f850160051c820191505b81811015611e3157828155600101611e1e565b505050505050565b815167ffffffffffffffff811115611e5357611e53611af9565b611e6781611e618454611d3d565b84611deb565b602080601f831160018114611e9c5760008415611e845750858301515b600019600386901b1c1916600185901b178555611e31565b600085815260208120601f198616915b82811015611ecb57888601518255948401946001909101908401611eac565b5085821015611ee95787850151600019600388901b60f8161c191681555b5050505050600190811b01905550565b60008351611f0b8184602088016119b4565b835190830190611f1f8183602088016119b4565b01949350505050565b60208082526025908201527f4552433732313a207472616e736665722066726f6d20696e636f72726563742060408201526437bbb732b960d91b606082015260800190565b60208082526032908201527f4552433732313a207472616e7366657220746f206e6f6e20455243373231526560408201527131b2b4bb32b91034b6b83632b6b2b73a32b960711b606082015260800190565b6001600160a01b0385811682528416602082015260408101839052608060608201819052600090611ff2908301846119d8565b9695505050505050565b60006020828403121561200e57600080fd5b815161170e8161198156fea264697066735822122064d79fe1a0d4a31b0d76f5f05c6b6aa204535c2339e2a2465b7720c170245cca64736f6c63430008130033",
  "immutableReferences": {},
  "source": "// SPDX-License-Identifier: MIT\r\npragma solidity ^0.8.19;\r\n\r\n// OpenZeppelin libraries\r\nimport \"@openzeppelin/contracts/token/ERC721/extensions/ERC721URIStorage.sol\";\r\nimport \"@openzeppelin/contracts/access/Ownable.sol\";\r\n\r\n/// @title CredentialNFT - Decentralized Autonomous University (DAU) Credential System\r\n/// @notice Universities propose + vote on student credentials before minting as NFTs\r\ncontract CredentialNFT is ERC721URIStorage, Ownable {\r\n    uint public proposalCount = 0;\r\n    uint public tokenIdCounter = 1;\r\n    uint public approvalThreshold; // minimum votes required\r\n\r\n    // Proposal struct\r\n    struct Proposal {\r\n        uint id;\r\n        address proposer;\r\n        address student;\r\n        string metadataURI; // usually an IPFS URI with JSON metadata\r\n        uint approvals;\r\n        uint rejections;\r\n        bool minted;\r\n    }\r\n\r\n    // Storage\r\n    mapping(uint => Proposal) private proposals; // proposalId => Proposal\r\n    mapping(uint => mapping(address => bool)) public hasVoted; // tracks if uni voted\r\n    mapping(address => bool) public isUniversity; // approved universities\r\n\r\n    // Events\r\n    event UniversityAdded(address uni);\r\n    event CredentialProposed(uint proposalId, address proposer, address student);\r\n    event CredentialVoted(uint proposalId, address voter, bool approved);\r\n    event CredentialMinted(uint proposalId, address student, uint tokenId);\r\n\r\n    // Constructor\r\n    constructor(uint _threshold) ERC721(\"CredentialNFT\", \"CRED\") Ownable() {\r\n\r\n        require(_threshold > 0, \"Threshold must be > 0\");\r\n        approvalThreshold = _threshold;\r\n    }\r\n\r\n    // --- Admin Functions ---\r\n    function addUniversity(address uni) external onlyOwner {\r\n        require(!isUniversity[uni], \"Already added\");\r\n        isUniversity[uni] = true;\r\n        emit UniversityAdded(uni);\r\n    }\r\n\r\n    // --- University Functions ---\r\n\r\n    /// @notice University proposes a credential for a student\r\n    function proposeCredential(address student, string memory metadataURI) external {\r\n        require(isUniversity[msg.sender], \"Only university can propose\");\r\n        proposalCount++;\r\n        Proposal storage p = proposals[proposalCount];\r\n        p.id = proposalCount;\r\n        p.proposer = msg.sender;\r\n        p.student = student;\r\n        p.metadataURI = metadataURI;\r\n        emit CredentialProposed(proposalCount, msg.sender, student);\r\n    }\r\n\r\n    /// @notice University votes approve/reject on a proposal\r\n    function voteOnCredential(uint proposalId, bool approve) external {\r\n        require(isUniversity[msg.sender], \"Only university can vote\");\r\n        Proposal storage p = proposals[proposalId];\r\n        require(!p.minted, \"Already minted\");\r\n        require(!hasVoted[proposalId][msg.sender], \"Already voted\");\r\n\r\n        hasVoted[proposalId][msg.sender] = true;\r\n\r\n        if (approve) {\r\n            p.approvals++;\r\n        } else {\r\n            p.rejections++;\r\n        }\r\n\r\n        emit CredentialVoted(proposalId, msg.sender, approve);\r\n    }\r\n\r\n    /// @notice Mint NFT after enough approvals\r\n    function mintCredential(uint proposalId) external {\r\n        Proposal storage p = proposals[proposalId];\r\n        require(!p.minted, \"Already minted\");\r\n        require(p.approvals >= approvalThreshold, \"Not enough approvals\");\r\n        require(p.approvals > p.rejections, \"Rejected by majority\");\r\n\r\n        uint newId = tokenIdCounter;\r\n        _mint(p.student, newId);\r\n        _setTokenURI(newId, p.metadataURI);\r\n        tokenIdCounter++;\r\n\r\n        p.minted = true;\r\n\r\n        emit CredentialMinted(proposalId, p.student, newId);\r\n    }\r\n\r\n    // --- Getter for Proposal Info ---\r\n    function getProposalInfo(uint proposalId) external view returns (\r\n        uint id,\r\n        address proposer,\r\n        address student,\r\n        string memory metadataURI,\r\n        uint approvals,\r\n        uint rejections,\r\n        bool minted\r\n    ) {\r\n        Proposal storage p = proposals[proposalId];\r\n        return (\r\n            p.id,\r\n            p.proposer,\r\n            p.student,\r\n            p.metadataURI,\r\n            p.approvals,\r\n            p.rejections,\r\n            p.minted\r\n        );\r\n    }\r\n}\r\n",
  "sourcePath": "C:\\Users\\tarun\\OneDrive\\Desktop\\blockchain-project-2\\contracts\\CredentialNFT.sol",
  "compiler": {
    "name": "solc",
    "version": "0.8.19+commit.7dd6d404.Emscripten.clang"
  },
  "schemaVersion": "3.4.16",
  "updatedAt": "2025-10-02T01:24:11.999Z",
  "networkType": "ethereum",
  "devdoc": {
    "events": {
      "Approval(address,address,uint256)": {
        "details": "Emitted when `owner` enables `approved` to manage the `tokenId` token."
      },
      "ApprovalForAll(address,address,bool)": {
        "details": "Emitted when `owner` enables or disables (`approved`) `operator` to manage all of its assets."
      },
      "BatchMetadataUpdate(uint256,uint256)": {
        "details": "This event emits when the metadata of a range of tokens is changed. So that the third-party platforms such as NFT market could timely update the images and related attributes of the NFTs."
      },
      "MetadataUpdate(uint256)": {
        "details": "This event emits when the metadata of a token is changed. So that the third-party platforms such as NFT market could timely update the images and related attributes of the NFT."
      },
      "Transfer(address,address,uint256)": {
        "details": "Emitted when `tokenId` token is transferred from `from` to `to`."
      }
    },
    "kind": "dev",
    "methods": {
      "approve(address,uint256)": {
        "details": "See {IERC721-approve}."
      },
      "balanceOf(address)": {
        "details": "See {IERC721-balanceOf}."
      },
      "getApproved(uint256)": {
        "details": "See {IERC721-getApproved}."
      },
      "isApprovedForAll(address,address)": {
        "details": "See {IERC721-isApprovedForAll}."
      },
      "name()": {
        "details": "See {IERC721Metadata-name}."
      },
      "owner()": {
        "details": "Returns the address of the current owner."
      },
      "ownerOf(uint256)": {
        "details": "See {IERC721-ownerOf}."
      },
      "renounceOwnership()": {
        "details": "Leaves the contract without owner. It will not be possible to call `onlyOwner` functions. Can only be called by the current owner. NOTE: Renouncing ownership will leave the contract without an owner, thereby disabling any functionality that is only available to the owner."
      },
      "safeTransferFrom(address,address,uint256)": {
        "details": "See {IERC721-safeTransferFrom}."
      },
      "safeTransferFrom(address,address,uint256,bytes)": {
        "details": "See {IERC721-safeTransferFrom}."
      },
      "setApprovalForAll(address,bool)": {
        "details": "See {IERC721-setApprovalForAll}."
      },
      "supportsInterface(bytes4)": {
        "details": "See {IERC165-supportsInterface}"
      },
      "symbol()": {
        "details": "See {IERC721Metadata-symbol}."
      },
      "tokenURI(uint256)": {
        "details": "See {IERC721Metadata-tokenURI}."
      },
      "transferFrom(address,address,uint256)": {
        "details": "See {IERC721-transferFrom}."
      },
      "transferOwnership(address)": {
        "details": "Transfers ownership of the contract to a new account (`newOwner`). Can only be called by the current owner."
      }
    },
    "title": "CredentialNFT - Decentralized Autonomous University (DAU) Credential System",
    "version": 1
  },
  "userdoc": {
    "kind": "user",
    "methods": {
      "mintCredential(uint256)": {
        "notice": "Mint NFT after enough approvals"
      },
      "proposeCredential(address,string)": {
        "notice": "University proposes a credential for a student"
      },
      "voteOnCredential(uint256,bool)": {
        "notice": "University votes approve/reject on a proposal"
      }
    },
    "notice": "Universities propose + vote on student credentials before minting as NFTs",
    "version": 1
  }
}